S0100000736B656C65746F6E2E73726563AF
S11300000C9434000C9451000C9451000C94510045
S11300100C9451000C9451000C9451000C94510018
S11300200C9451000C9451000C9451000C94510008
S11300300C9451000C9451000C9451000C945100F8
S11300400C9451000C9451000C9451000C945100E8
S11300500C9451000C9451000C9451000C945100D8
S11300600C9451000C94510011241FBECFEFD8E022
S1130070DEBFCDBF13E0A0E0B1E0E6EDFAE102C0DF
S113008005900D92AC3BB107D9F726E0ACEBB3E099
S113009001C01D92A831B207E1F70E94400B0C94F5
S11300A0690D0C940000FC010FB6F89460911406DD
S11300B07091150680911606909117060FBE309721
S11300C021F06083718382839383089520910801D2
S11300D03091090182179307ACF08091C403909189
S11300E0C5039C01220F331F820F931F849F90012D
S11300F0859F300D949F300D11243093C3032093BA
S1130100C203089520910801309109012617370789
S1130110C4F08091C4039091C5039C01220F331F46
S1130120820F931F919581959109489F9001499F52
S1130130300D589F300D11243093C3032093C20314
S11301400895209108013091090182179307E4F47E
S1130150E0910801F09109019C012B5F3F4FE217E8
S1130160F30794F48091C4039091C503880F991FF9
S1130170489F9001499F300D589F300D11243093B2
S1130180C3032093C203089520910801309109010B
S113019026173707FCF4E0910801F09109019B014F
S11301A0255031092E173F07ACF48091C403909178
S11301B0C503919581959109880F991F489F9001D6
S11301C0499F300D589F300D11243093C303209361
S11301D0C2030895E0910801F09109019C012B5F8D
S11301E03F4F2E173F07CCF4E0910801F09109012D
S11301F02E5F3F4FE217F30784F42091C40330913C
S1130200C503429FC001439F900D529F900D11243E
S11302109093C3038093C2030895E0910801F09181
S113022009019B0125503109E217F307E4F46750F3
S113023071092091080130910901621773079CF438
S11302408091C4039091C503919581959109489F2C
S11302509001499F300D589F300D11243093C303F2
S11302602093C20308950797209108013091090152
S11302708217930721F41092C3031092C2030895C6
S11302800F931F93CF93DF932091080130910901BD
S11302900091C2031091C3034091060150910701DC
S11302A0C091C403D091C503609108017091090104
S11302B0A091C203B091C3038091060190910701FC
S11302C0E091C403F091C503201B4C1B6A1B6E5FB5
S11302D08E1B00E010E08E5F0E94440780910401B1
S11302E090910501019749F48091BE039091BF0359
S11302F061E070E00E9428080EC080910401909192
S11303000501892B41F48091BC039091BD0360E009
S113031070E00E94280882E090E0909305018093A9
S113032004012091C4033091C50333231CF4319597
S1130330219531098CE990E0821B930B20910601F1
S113034030910701281739070CF4A6C08091C40323
S11303509091C503181619060CF09EC02091060151
S1130360309107018BE990E0909307018093060197
S11303708091060190910701821B930B9C0122F44A
S113038022273327281B390B8091C2039091C30382
S1130390289FA001299F500D389F500D1124809152
S11303A0080190910901840F951F9093090180938E
S11303B008010E94F60C66E070E00E94530B01965F
S11303C09093C5038093C4038091C4039091C503A3
S11303D09195819591099093C5038093C4030E94DC
S11303E0C50690930F0580930E0580910E0590919C
S11303F00F050F9690930D0580930C0580910801CD
S113040090910901029620910E0530910F058217F3
S11304109307DCF0809108019091090102972091E3
S11304200C0530910D05281739077CF00E94CA0489
S113043060910C0570910D0580910E0590910F054A
S113044041E050E00E946600D2C0C0910801D09102
S11304500901DC2FDE5F0FEF1FEF2D2F4FE96C2F0B
S11304608DE90E9444078FE39CE90197F1F700C0EE
S1130470000000E010E02D2F4FE96C2F8DE90E9461
S113048044078BB182608BB980E090E00E944804FD
S11304908BB18D7F8BB9ABC08091C4039091C503A0
S11304A099231CF491958195910901962091060157
S11304B030910701821793070CF499C08091C4030B
S11304C09091C50399230CF092C0209106013091BC
S11304D0070182E090E090930701809306018091E8
S11304E0060190910701821B930B9C0122F42227A1
S11304F03327281B390B8091C2039091C303289F93
S1130500A001299F500D389F500D1124809108019E
S113051090910901840F951F90930901809308011C
S11305200E94F60C66E070E00E94530B01969093D3
S1130530C5038093C4030E94CA069093CB0380939F
S1130540CA038091CA039091CB030F969093C90379
S11305508093C8038091080190910901029620912B
S1130560CA033091CB0382179307DCF08091080112
S11305709091090102972091C8033091C90328176B
S113058039077CF00E94CA046091C8037091C903C2
S11305908091CA039091CB034FEF5FEF0E946600F6
S11305A026C0C0910801D0910901DC2FDE5F0FEF56
S11305B01FEF2D2F42E06C2F80E00E9444078FE351
S11305C09CE90197F1F700C0000000E010E02D2F36
S11305D042E06C2F80E00E9444078BB182608BB9AB
S11305E081E090E00E9448048BB18D7F8BB98091AB
S11305F0080190910901409764F580910801909158
S11306000901079734F1809106019091070183361F
S1130610910574F080910601909107018E36910541
S11306203CF481E090E0909305018093040111C0B3
S11306308091060190910701C6975CF080910601B4
S1130640909107018134910524F4109205011092D0
S113065004018091C2039091C30399231CF49195E2
S11306608195910902962091080130910901821720
S11306709307A4F42091C2033091C30333231CF4E1
S11306803195219531098EE790E0821B930B2091DF
S1130690080130910901281739076CF00E94CA0437
S11306A08091C2039091C303919581959109909390
S11306B0C3038093C2032091080130910901409142
S11306C00601509107016091080170910901809120
S11306D00601909107012E5F4E5F0FEF1FEF0E94FE
S11306E044078091C0039091C1030197F9F49FEFEF
S11306F029E638E1915020403040E1F700C0000085
S1130700209108013091090140910601509107019F
S1130710609108017091090180910601909107018F
S11307202E5F4E5F00E010E00E9444072091C40356
S11307303091C5038091060190910701820F931FA8
S1130740909307018093060180910601909107011F
S113075099232CF410920701109206010DC0809188
S11307600601909107018E39910534F08DE990E0EE
S113077090930701809306012091C2033091C30333
S11307808091080190910901820F931F90930901B0
S113079080930801809108019091090199232CF418
S11307A010920901109208010DC0809108019091E6
S11307B009018E37910534F08DE790E0909309019B
S11307C0809308011092C1031092C003DF91CF916E
S11307D01F910F9108950F931F9320910801309159
S11307E0090140910601509107016091080170913F
S11307F0090180910601909107012E5F4E5F00E090
S113080010E00E9444070E94F60C6CE070E00E9425
S1130810530B06979093C5038093C4038091C4033C
S11308209091C503892B79F30E94F60C6CE070E07B
S11308300E94530B06979093C3038093C2030E94B4
S113084040011F910F9108950F931F9380E090E052
S11308500E945300CB010E94FB0C209108013091AF
S113086009014091060150910701609108017091BE
S1130870090180910601909107012E5F4E5F0FEFF1
S11308801FEF0E9444070E94EB031F910F910895EC
S1130890CF93DF93EC010E94AA0481E090E090934F
S11308A0C1038093C0038FE490E090930701809389
S11308B006018FE390E09093090180930801C13011
S11308C0D105E1F48091BE039091BF03019690930A
S11308D0BF038093BE038091BE039091BF0361E088
S11308E070E00E9428088091BE039091BF030B978B
S11308F011F581E090E00E944C091DC0CD2BD9F484
S11309008091BC039091BD0301969093BD038093A5
S1130910BC038091BC039091BD0360E070E00E9431
S113092028088091BC039091BD030B9721F480E0CB
S113093090E00E944C090E94EB03DF91CF9108954F
S1130940809108019091090108951092B3001092CA
S1130950B4000895E3EBF0E080EF8083608170E001
S113096080E090E00E941C0C20E030E040EA51E47A
S11309700E947B0B0E94ED0B6093B4002FEF81EE7D
S113098094E0215080409040E1F700C000000E94B4
S1130990A5040895E3EBF0E080EF8083608170E0CC
S11309A080E090E00E941C0C20E030E040EA51E43A
S11309B00E947B0B0E94ED0B6093B4008FE39CE9D3
S11309C00197F1F700C000000E94A50408950E9459
S11309D0CA040E94A5042FEF81EE94E021508040C8
S11309E09040E1F700C000000E94CA040E94A504E0
S11309F008958AB188608AB9A1EBB0E08C918160D6
S1130A008C938C9182608C938C918B7F8C93E0EB94
S1130A10F0E08081816080838081826080838C911A
S1130A2088608C9380818064808380818F778083C9
S1130A30A3EBB0E01C9280818F7E808380818062F2
S1130A4080836C9170E080E090E00E941C0C20E0B8
S1130A5030E040EA51E40E947B0B0E94ED0B60936E
S1130A60B4000E94E7040895E4E6F0E080818E7FFC
S1130A708083ACE7B0E08C9180648C938C918F7709
S1130A808C93EAE7F0E080818160808380818260DA
S1130A9080838081846080838C918E7F8C938C9101
S1130AA08D7F8C938C918B7F8C938C91877F8C938F
S1130AB0808180628083ABE7B0E08C918E7F8C93E1
S1130AC08C918D7F8C938C918B7F8C93AEE7B0E06F
S1130AD08C9181608C938081806880838081806424
S1130AE08083109211061092100608958AB18B7FAC
S1130AF08AB98AB18F7D8AB98AB18F778AB981E040
S1130B0090E0909311068093100608959C012A5E4C
S1130B1031402932310528F18A3923E0920724F53E
S1130B20843323E092071CF58E3C22E0920714F5EF
S1130B30883622E092070CF5823022E0920704F511
S1130B408C3921E09207FCF4863321E09207F4F417
S1130B50803D9105F4F48A369105F4F480E190E047
S1130B60089580E090E0089580EF9FEF089588EF66
S1130B709FEF08958CEF9FEF08958EEF9FEF0895F8
S1130B808FEF9FEF089581E090E0089582E090E078
S1130B90089584E090E0089588E090E008950F932C
S1130BA01F93CF93DF932091100630911106232BCE
S1130BB021F40E948605EC0115C0809110069091E5
S1130BC01106019739F44A9B08C04D9909C0C8EF32
S1130BD0DFEF08C0C0E0D0E005C0C8E0D0E002C04C
S1130BE0C0E0D0E0209781F020910A0130910B0100
S1130BF060910A0170910B01215F00E010E04FE960
S1130C008EE90E9444070FC020910A0130910B0124
S1130C1060910A0170910B01215F0FEF1FEF4FE903
S1130C208EE90E94440780910A0190910B018C0F78
S1130C309D1F90930B0180930A0180910A0190916A
S1130C400B01813791053CF080E790E090930B0114
S1130C5080930A010AC080910A0190910B019923A3
S1130C6024F410920B0110920A0120910A01309190
S1130C700B0160910A0170910B01215F0FEF1FEFCF
S1130C804FE98EE90E944407DF91CF911F910F91A4
S1130C900895EF92FF920F931F93CF93DF93EC018C
S1130CA00E94A0047C012091C6033091C703609187
S1130CB0C6037091C703215F00E010E041E080E0CB
S1130CC00E9444078091C6039091C70307968E152E
S1130CD09F055CF48091C6039091C7030F968E150F
S1130CE09F05DCF0C1E0D0E018C08091C60390916C
S1130CF0C7030796E816F9065CF48091C603909141
S1130D00C703E816F9063CF4D195C195D10905C08D
S1130D10C0E0D0E002C0CFEFDFEF8091C603909136
S1130D20C7038C0F9D1F9093C7038093C6038091C4
S1130D30C6039091C703813791053CF080E790E0AA
S1130D409093C7038093C6030AC08091C603909111
S1130D50C703992324F41092C7031092C603209169
S1130D60C6033091C7036091C6037091C703215F26
S1130D700FEF1FEF41E080E00E944407DF91CF9125
S1130D801F910F91FF90EF90089580910A01909127
S1130D900B0108958091C6039091C7030895CF93E2
S1130DA0DF93EA01262F482F0E94080ACE010E94F1
S1130DB0AA09DF91CF9108957F928F929F92AF926B
S1130DC0BF92CF92DF92EF92FF920F931F93CF9334
S1130DD0DF935A0190E2A91AB10840EA50E0481B97
S1130DE05109483051050CF441C040E850E0461B1D
S1130DF05109483051058CF539C0F501EE0FFF1F3C
S1130E00EE0FFF1FEA0DFB1DEF56FE4FEE0DFF1D0B
S1130E107080C0E0D0E01AC0272D30E00C2E02C054
S1130E20359527950A94E2F720FF08C0A6016C2F98
S1130E30680D892D8E0D0E94CF0607C0A8016C2F66
S1130E40680D892D8E0D0E94CF062196C830D105DC
S1130E501CF39FEFE91AF90A05C06901862E982E42
S1130E60E12CF12C85E0E816F1043CF2DF91CF91FE
S1130E701F910F91FF90EF90DF90CF90BF90AF90B4
S1130E809F908F907F900895BF92CF92DF92EF92C0
S1130E90FF920F931F93CF93DF93B82EF42EE22E7D
S1130EA04817B0F52617D0F4C62ED12C11C0CB2D7F
S1130EB0D0E006C0A8016C2D8C2F0E94CF0621978C
S1130EC08F2D90E0C817D907ACF781E0C81AD10874
S1130ED08E2D90E0C816D90654F74FC0C62ED12CDB
S1130EE011C0CB2DD0E006C0A8016C2D8C2F0E9420
S1130EF0CF0621978F2D90E0C817D907ACF78FEF55
S1130F00C81AD80A8E2D90E08C159D0554F735C06B
S1130F102617D0F4C62ED12C11C0CB2DD0E006C09C
S1130F20A8016C2D8C2F0E94CF0621968F2D90E066
S1130F308C179D07ACF781E0C81AD1088E2D90E07C
S1130F40C816D90654F719C0C62FD0E011C0CB2C4F
S1130F50D12C08C0A8016C2F8C2D0E94CF068FEFD6
S1130F60C81AD80A8F2D90E08C159D059CF7219600
S1130F708E2D90E08C179D0754F7DF91CF911F9130
S1130F800F91FF90EF90DF90CF90BF900895EF9274
S1130F90FF920F931F93CF93DF937C0100E010E047
S1130FA00EC0A7016C2F802F0E94CF06219602C08D
S1130FB0C0E0D0E0C038D105A4F30F5F1F4F003A62
S1130FC01105B4F3DF91CF911F910F91FF90EF9032
S1130FD008957F928F929F92AF92BF92CF92DF92A9
S1130FE0EF92FF920F931F93CF93DF93782E862E69
S1130FF05A0169017801982EC0E0D0E015C04A304A
S113100021F488E0880E972C0EC0493019F485E04D
S1131010980E09C050E087019601682D892D0E9421
S1131020DC0685E0980E2196F501EC0FFD1F40814A
S11310304111E5CFDF91CF911F910F91FF90EF9078
S1131040DF90CF90BF90AF909F908F907F90089546
S11310500F931F93CF936130710521F0672B21F01B
S1131060C0E003C0C4E601C0C7E38130910599F430
S113107000E010E02FEF3FEF41E753E068E08C2FF2
S11310800E94E9072FEF3FEF41E753E068E08C2F20
S11310900E94E907EDC08230910599F400E010E068
S11310A02FEF3FEF44E753E068E08C2F0E94E907FD
S11310B02FEF3FEF44E753E068E08C2F0E94E907ED
S11310C0D7C08330910599F400E010E02FEF3FEF93
S11310D047E753E068E08C2F0E94E9072FEF3FEFCA
S11310E047E753E068E08C2F0E94E907C1C08430D1
S11310F0910599F400E010E02FEF3FEF4AE753E049
S113110068E08C2F0E94E9072FEF3FEF4AE753E096
S113111068E08C2F0E94E907ABC08530910599F4F3
S113112000E010E02FEF3FEF4DE753E068E08C2F35
S11311300E94E9072FEF3FEF4DE753E068E08C2F63
S11311400E94E90795C08630910599F400E010E00B
S11311502FEF3FEF40E853E068E08C2F0E94E9074F
S11311602FEF3FEF40E853E068E08C2F0E94E9073F
S11311707FC08730910599F400E010E02FEF3FEF36
S113118043E853E068E08C2F0E94E9072FEF3FEF1C
S113119043E853E068E08C2F0E94E90769C0883077
S11311A0910599F400E010E02FEF3FEF46E853E09B
S11311B068E08C2F0E94E9072FEF3FEF46E853E0E9
S11311C068E08C2F0E94E90753C08930910599F497
S11311D000E010E02FEF3FEF49E853E068E08C2F88
S11311E00E94E9072FEF3FEF49E853E068E08C2FB6
S11311F00E94E9073DC08A30910599F400E010E0AF
S11312002FEF3FEF4CE853E068E08C2F0E94E90792
S11312102FEF3FEF4CE853E068E08C2F0E94E90782
S113122027C00B9799F400E010E02FEF3FEF4FE851
S113123053E068E08C2F0E94E9072FEF3FEF4FE85F
S113124053E068E08C2F0E94E90712C000E010E030
S11312502FEF3FEF42E953E068E08C2F0E94E9074B
S11312602FEF3FEF42E953E068E08C2F0E94E9073B
S1131270CF911F910F9108958AB182608AB960E07D
S113128070E080E090E00E94280861E070E080E077
S113129090E00E94280808958130910559F40FEFD9
S11312A01FEF20E030E045E953E06CE380E30E9467
S11312B0E9070CC0892B51F40FEF1FEF20E030E059
S11312C043EA53E06CE380E30E94E9072FEF83EDE8
S11312D090E3215080409040E1F700C0000098E086
S11312E088E10FB6F894A895809360000FBE9093A0
S11312F06000FFCF80E58CBD81E08DBD089584B191
S11313008F6284B98AB180648AB984B5836884BDE4
S113131085B5846085BD8FE787BD83ED90E3019734
S1131320F1F700C0000085B1826085B9089507C057
S113133089EF90E00197F1F700C00000C9019C011A
S113134021503109892BA1F708958EBD0DB407FEF4
S1131350FDCF089525B12B7F25B99EBD0DB407FEA1
S1131360FDCF8EBD0DB407FEFDCF85B1846085B978
S11313700895FF920F931F93CF93DF93EC0185B1F0
S11313808B7F85B927C085B18E7F85B988810E94FE
S1131390A509FE013296898195B1916095B908C07D
S11313A08F010F5F1F4F80810E94A5098C2FF801C8
S11313B0CFEFC80F8111F4CFEF01219680818823EC
S11313C041F08F3F11F090E002C084EF91E00E9461
S11313D097096F2DFF24FA94F60E6111D4CF85B1CD
S11313E0846085B9DF91CF911F910F91FF9008958B
S11313F00E947F090E947A0981EE94E00197F1F737
S113140000C0000066E18CE091E00E94B9090895F3
S1131410CF93DF93CDB7DEB761970FB6F894DEBFF5
S11314200FBECDBF9AE2998394E09A831B828C838A
S11314301D824E831F828BE2888799871A866B8769
S11314401C862D871E868CE28F87188A85E0898BFF
S113145063E0CE0101960E94B90961960FB6F89433
S1131460DEBF0FBECDBFDF91CF9108950F931F93C1
S11314708AB18F7E8AB98BB180618BB90FEF1FEF70
S113148020E030E041EB53E068E386E40E94E907A2
S113149000E010E02FEF3FEF46EB53E068E486E412
S11314A00E94E907809178009091790082319240FE
S11314B0D8F000E010E02FEF3FEF46EB53E068E494
S11314C086E40E94E9070FEF1FEF20E030E041EBD4
S11314D053E068E386E40E94E90784E090E0909397
S11314E013068093120628C08091780090917900A9
S11314F08B3E9140D8F400E010E02FEF3FEF41EB3A
S113150053E068E386E40E94E9070FEF1FEF20E051
S113151030E046EB53E068E486E40E94E90788E0A3
S113152090E0909313068093120606C084E090E046
S113153090931306809312064C99B4CF0E94CA0468
S113154000E010E020E544E668E386E40E944407F6
S11315501F910F9108950F931F930FEF1FEF20E03A
S113156030E041EB53E068E386E40E94E90700E0E1
S113157010E02FEF3FEF46EB53E068E486E40E946F
S1131580E9074D991BC000E010E02FEF3FEF46EB59
S113159053E068E486E40E94E9070FEF1FEF20E0C0
S11315A030E041EB53E068E386E40E94E90784E01D
S11315B090E0909313068093120623C04A991BC0AF
S11315C000E010E02FEF3FEF41EB53E068E386E4E7
S11315D00E94E9070FEF1FEF20E030E046EB53E0F5
S11315E068E486E40E94E90788E090E0909313069B
S11315F08093120606C084E090E0909313068093D3
S113160012064F99BECF0E94CA0400E010E020E504
S113161044E668E386E40E9444071F910F9108950D
S1131620CF93DF93C0E0D0E007C04FEF5FEF6C2FA4
S113163080E50E94CF062396C038D105B4F3DF912C
S1131640CF91089584B18F7E84B90E94F8091C9BC0
S113165003C00E94760502C00E94340580E090E039
S11316600E94C7070E94F9041C9B03C00E94AB0A96
S113167002C00E94360A0E943C090E942404089574
S11316800E94220B80917800909179000E94CF05EE
S113169080911206909113060E9449060E9440010F
S11316A00E94100BEFCF97FB072E16F4009407D07F
S11316B077FD09D00E94670B07FC05D03EF4909596
S11316C081959F4F0895709561957F4F0895AA1B4A
S11316D0BB1B51E107C0AA1FBB1FA617B70710F019
S11316E0A61BB70B881F991F5A95A9F7809590954B
S11316F0BC01CD0108950E948F0B0C94700C0E94C4
S1131700690C58F00E94620C40F029F45F3F29F004
S11317100C94590C51110C94A40C0C945F0C0E9461
S1131720810C68F39923B1F3552391F3951B550B61
S1131730BB27AA2762177307840738F09F5F5F4FA0
S1131740220F331F441FAA1FA9F335D00E2E3AF0DF
S1131750E0E832D091505040E695001CCAF72BD0F7
S1131760FE2F29D0660F771F881FBB1F2617370748
S11317704807AB07B0E809F0BB0B802DBF01FF277A
S113178093585F4F3AF09E3F510578F00C94590CF2
S11317900C94A40C5F3FE4F3983ED4F386957795BC
S11317A06795B795F7959F5FC9F7880F911D969533
S11317B0879597F90895E1E0660F771F881FBB1F8F
S11317C0621773078407BA0720F0621B730B840B3C
S11317D0BA0BEE1F88F7E09508950E94890C88F0F3
S11317E09F5798F0B92F9927B751B0F0E1F0660FE1
S11317F0771F881F991F1AF0BA95C9F714C0B13022
S113180091F00E94A30CB1E008950C94A30C672FEF
S1131810782F8827B85F39F0B93FCCF38695779550
S11318206795B395D9F73EF4909580957095619539
S11318307F4F8F4F9F4F0895E89409C097FB3EF464
S113184090958095709561957F4F8F4F9F4F992309
S1131850A9F0F92F96E9BB279395F6958795779587
S11318606795B795F111F8CFFAF4BB0F11F460FF47
S11318701BC06F5F7F4F8F4F9F4F16C0882311F09F
S113188096E911C0772321F09EE8872F762F05C0B3
S1131890662371F096E8862F70E060E02AF09A954E
S11318A0660F771F881FDAF7880F9695879597F943
S11318B0089597F99F6780E870E060E008959FEFCE
S11318C080EC089500240A941616170618060906D3
S11318D0089500240A9412161306140605060895A2
S11318E0092E0394000C11F4882352F0BB0F40F42A
S11318F0BF2B11F460FF04C06F5F7F4F8F4F9F4F6A
S1131900089557FD9058440F551F59F05F3F71F0EB
S11319104795880F97FB991F61F09F3F79F0879552
S11319200895121613061406551FF2CF4695F1DFDB
S113193008C0161617061806991FF1CF869571056B
S1131940610508940895E894BB2766277727CB019F
S113195097F908958F929F92AF92BF92CF92DF92A0
S1131960EF92FF92CF93DF93EC01688179818A81B2
S11319709B81611571058105910521F464E279ED7E
S11319808BE597E02DE133EF41E050E00E94060D36
S113199049015A019B01AC01A7EAB1E40E94250D5B
S11319A06B017C01ACEEB4EFA50194010E94330DF0
S11319B0DC01CB018C0D9D1DAE1DBF1DB7FF03C007
S11319C00197A109B04888839983AA83BB839F7731
S11319D0DF91CF91FF90EF90DF90CF90BF90AF90C9
S11319E09F908F9008950E94AA0C089580E091E042
S11319F00E94AA0C0895A0E0B0E0809300019093A7
S1131A000101A0930201B09303010895052E97FBF1
S1131A101EF400940E941D0D57FD07D00E94380D3E
S1131A2007FC03D04EF40C941D0D50954095309551
S1131A3021953F4F4F4F5F4F089590958095709536
S1131A4061957F4F8F4F9F4F08950E945A0DA59F18
S1131A50900DB49F900DA49F800D911D11240895A5
S1131A60B7FF0C94250D0E94250D821B930B08953E
S1131A70A1E21A2EAA1BBB1BFD010DC0AA1FBB1F8E
S1131A80EE1FFF1FA217B307E407F50720F0A21B00
S1131A90B30BE40BF50B661F771F881F991F1A946D
S1131AA069F760957095809590959B01AC01BD0197
S1131AB0CF010895A29FB001B39FC001A39F700DF1
S1131AC0811D1124911DB29F700D811D1124911D42
S1091AD00895F894FFCF15
S1131AD60100000002004F003F003900010096118A
S1131AE600FFB103012C2D00B203012C2D00B30617
S1131AF6012C2D012C2D00B4010700C0030A028419
S1131B0605C101C505C2020A0005C3028A2A05C425
S1131B16028AEE05C5010E002000003601C8003A0F
S1131B260105002A040000007F002B040000009F2A
S1131B3600E010021C07123732292D29252B390003
S1131B4601031000E110031D07062E2C292D2E2E4D
S1131B56373F000002100013000A290064360160B2
S1131B660A000000000000005F00000007000700F4
S1131B76147F147F14242A7F2A12231308646236DE
S1131B86495522500005030000001C224100004173
S1131B96221C0014083E081408083E0808005030A9
S1131BA60000080808080800606000002010080407
S1131BB6023E5149453E00427F400042615149463A
S1131BC62141454B311814127F1027454545393CB0
S1131BD64A494930017109050336494949360649D6
S1131BE649291E0036360000005636000008142225
S1131BF6410014141414140041221408020151095A
S1131C0606324979413E7E1111117E7F4949493692
S1131C163E414141227F4141221C7F494949417F3E
S1131C26090909013E4149497A7F0808087F0041AC
S1131C367F41002040413F017F081422417F4040FC
S1131C4640407F020C027F7F0408107F3E414141E1
S1131C563E7F090909063E4151215E7F091929463D
S1131C66464949493101017F01013F4040403F1F38
S1131C762040201F3F4038403F6314081463070880
S1131C867008076151494543007F41410002040839
S1131C9610200041417F00040201020440404040FC
S1131CA640000102040020545454787F48444438C8
S1131CB63844444420384444487F3854545418081B
S1131CC67E0901020C5252523E7F080404780044F5
S1131CD67D40002040443D007F1028440000417FA1
S1131CE640007C041804787C08040478384444448E
S1131CF6387C14141408081414187C7C080404088A
S1131D064854545420043F4440203C4040207C1C0A
S1131D162040201C3C4030403C44281028440C50B1
S1131D2650503C4464544C44000836410000007F43
S1131D3600000041360800100808100800060909CA
S1131D460630310030320030330030340030350094
S1131D563036003037003038003039003130003149
S1131D663100303000504C415945522031205749FA
S1131D764E5300434F4D50555445522057494E53E8
S10F1D86004541535900484152440000FC
S9030000FC
